:100000000C94E3010C942A020C942A020C942A0208
:100010000C942A020C942A020C942A020C942A02B0
:100020000C942A020C942A020C940E250C94E025C0
:100030000C944F200C942A020C942A020C942A024D
:100040000C942A020C942A020C942A020C942A0280
:100050000C942A020C94A8200C942A020C942A02D4
:100060000C942A020C942A020C942A020C942A0260
:100070000C942A020C942A020C942A020C942A0250
:100080000C942A020C942A020C942A020C942A0240
:100090000C942A020C942A020C942A020C942A0230
:1000A0000C942A020C942A020C942A0205160516B6
:1000B000371637168416A216C317C317AD16421784
:1000C00053175317B317C317C317BC176318631815
:1000D000751875186C1875187518751863186318E5
:1000E00071187518751871184D2674266C277426AA
:1000F0006C27C026E3266C273A2749270763423638
:10010000B79BD8A71A39685618AEBAAB558C1D3CA8
:10011000B7CC5763BD6DEDFD753EF6177231BF006C
:100120000000803F05A84CCDB2D44EB93836A902A4
:100130000C50B9918688083CA6AAAA2ABE000000E5
:10014000803FE1001D0006001B00500051004F00E1
:100150005200280029410000000000000000C35C9C
:10016000CB5CC45CCA5C000000001E0F0500047F6D
:100170003F1F643214643214783C1E1E140A05FFBB
:10018000AA7F5540000101010101010101010202A4
:100190000202020202020203030303030303030435
:1001A0000404040404040505050505060606060600
:1001B000070707070708080808090909090A0A0ABA
:1001C0000B0B0B0C0C0C0D0D0D0E0E0E0F0F0F105C
:1001D00010111111121213131414151516161717E6
:1001E000181819191A1A1B1B1C1D1D1E1E1F202052
:1001F000212222232424252626272829292A2B2C9C
:100200002D2D2E2F30313232333435363738393ABE
:100210003B3C3D3E3F404142434445464748494AB6
:100220004C4D4E4F50515354555658595A5B5D5E84
:100230005F616264656668696B6C6D6F707273751F
:1002400077787A7B7D7E8082838587888A8C8E8F83
:1002500091939596989A9C9EA0A2A3A5A7A9ABADB1
:10026000AFB1B3B5B7BABCBEC0C2C4C6C9CBCDCF9F
:10027000D1D4D6D8DBDDDFE2E4E7E9EBEEF0F3F54D
:10028000F8FAFDFF1E0354006F00750068006F0050
:100290007500500061006400200072006500760067
:1002A000320000001403500069006D0065006E000C
:1002B00074006F0073006F0000000403090409025A
:1002C0003B00020100A0FA09040000010301010043
:1002D0000921110100012240000705810308000ADD
:1002E000090401000103000000092111010001229D
:1002F0007B000705820320000A12011001000000A4
:10030000080DD0310001000102000105010902A120
:100310000185020901A10005091901290815002517
:100320000195087501810205010930093115812502
:100330007F95027508810609381581257F9501751D
:10034000088106050C0A38021581257F950175087C
:100350008106C0C005010980A101850319012AB7E2
:1003600000150126B700950175108100C0050C0924
:1003700001A101850419012AA002150126A00295F8
:100380000175108100C005010906A101050719E0EA
:1003900029E7150025019508750181029501750869
:1003A00081010507190029FF150026FF0095067534
:1003B0000881000508190129059505750191029527
:1003C0000175039101C011241FBECFEFDAE0DEBF3B
:1003D000CDBF04B603FE27C08091D9029091DA0206
:1003E000A091DB02B091DC028730904BA740B04B6C
:1003F000D1F41092D9021092DA021092DB0210921C
:10040000DC0214BE84B7877F84BF0FB6F894A8952A
:1004100080916000886180936000109260000FBE40
:10042000E0E0F8E3099511E0A0E0B1E0ECEAF8E5DE
:1004300002C005900D92A43CB107D9F722E0A4ECCC
:10044000B1E001C01D92A93DB207E1F70E94482228
:100450000C94542C0C940000089581E0089581E0E0
:1004600008950C942F0208950C9433021F93CF9398
:10047000DF9300D000D01F92CDB7DEB749835A83F7
:100480006B833091350289819A81311114C06623C2
:1004900059F0222349F00E949C1D182F682F898152
:1004A0009A810E94451D03C00E94701D182F69810A
:1004B0007A81812F04C00E949C1D69817A810F90EE
:1004C0000F900F900F900F90DF91CF911F910C9490
:1004D0000003FC01262F4081518162817381848158
:1004E0000C943602CF93DF93EC0160E00E94690226
:1004F000BE01DF91CF910C9434020E940B050C9445
:1005000046050C94440508950E9451180E948302E8
:100510002FEF84E39CE0215080409040E1F700C041
:1005200000000C94CE200F931F93CF93DF938C0188
:1005300061E00E946902EC01B8010E943102882347
:1005400009F444C0B801CE010E9478118823F1F16A
:10055000B801CE010E94CA118823C1F1B801CE01B1
:100560000E94F512882391F1B801CE010E940B1070
:10057000882361F1F8018281882309F1CB358DE56B
:10058000D807C1F050F4C115FCE5DF0781F0CF3D7D
:10059000DC45A9F40E94A71F19C0CC35EDE5DE07A4
:1005A00061F0CD35DD4559F40E942F1E08C00E9430
:1005B00084020CC00E94381E02C00E943B1EC8016B
:1005C000DF91CF911F910F910C942D0280E0DF916C
:1005D000CF911F910F91089508950C94EC0281E042
:1005E00008950C94EF02CF93C82F0E94ED028C2F38
:1005F0000E94F102CF91089580E090E0089508955F
:10060000272F30E0280F311D8AE0829FF001839F61
:10061000F00D1124E60FF11DEE0FFF1FEE5BFE4FF4
:10062000859194910895880F991FFC01E659FE4F1A
:10063000859194910895CF93DF930E9400030E94C7
:100640003304EC018115904508F041C0C11580E4E8
:10065000D80708F0D1C0C83ED10510F5C03ED1057D
:1006600008F0FDC0C83AD10578F4C53AD10508F0C4
:10067000A2C0C130D10509F4F2C008F4EEC0C43004
:10068000D10508F0ECC0E9C0CF3BD10508F49BC010
:10069000C03CD10508F4E1C0CE01805C91099EC048
:1006A000C11590E2D90758F4C11521E0D20708F02E
:1006B000D6C0CD3ED10508F4D0C0D065D0C0C1159C
:1006C00080E3D80708F08EC0CE019F7087C0C115A7
:1006D00095E5D90708F043C0C11524E5D20708F015
:1006E000A2C0C11582E5D80708F5C11591E5D90763
:1006F00008F085C0CE0174E0969587957A95E1F76C
:1007000083709C2F937021E030E002C0220F331FD2
:100710009A95E2F73C68382BCF70C695C69580E273
:10072000C89FE0011124C22BD32B99C09E012370D6
:1007300033278C2F86958695C115D34508F064C064
:10074000C1E0D0E002C0CC0FDD1F2A95E2F720E225
:10075000829FC0011124C82BD92BDC6880C0C11531
:1007600029E5D207A0F4C11588E5D80708F060C0D4
:10077000C11596E5D90708F070C08C2F0E94C704F8
:100780008F71C82FD0E0DC2FCC27D06268C0C11594
:100790002AE5D20708F451C0CE0190568115904247
:1007A00008F05BC08D2F8F710E94C704DD27D062D7
:1007B0008F71D82B54C0C55AD0E0C65ADE4FC881BD
:1007C000D0E0D0644CC0C85AD0E0CC0FDD1FC45D6F
:1007D000DE4F0990D881C02DD46441C00E9413031C
:1007E000EC013DC0CE019927D3FF03C0EC01D86CCA
:1007F00036C0EC01D06C33C0DF70D06A30C0DC2F63
:10080000CC27C16FD06A2BC0C1E0D0E002C0CC0FB2
:10081000DD1F2A95E2F720E2829FC0011124C82B38
:10082000D92BDA681CC0DC2FCC27C46FD06A17C064
:10083000DC2FCC27C06FD06A12C08C2F8F700E9423
:10084000C70494E0D695C7959A95E1F7CF70D0E0AC
:10085000DC2FCC27D069C82B02C0C0E0D0E0CE018D
:10086000DF91CF9108958238910569F1B0F4813319
:10087000910509F46DC048F48932910509F463C00B
:100880008A32910509F469C008958533910509F408
:1008900055C089339105B9F00895833E910569F1FA
:1008A00038F4803E9105B1F0823E910509F108953A
:1008B000863E9105A9F1873E9105B9F1843E9105E7
:1008C00009F064C023C02091990220FD4FC021FD92
:1008D0004DC008958091990280FD44C080919A0294
:1008E00080FF44C08091990284FD42C083EE4DC0D8
:1008F0008091990282FF38C0F5CF8091990282FDE4
:1009000033C080919A0280FD31C0ECCF80919A0271
:1009100081FF32C08091990284FD2AC087EE35C0E4
:100920008091990283FF26C0F5CF8091990283FDC3
:1009300021C080919A0281FD1FC0ECCF8091990265
:1009400085FD1CC01DC08091990285FD19C016C08F
:100950008091990286FD16C017C08091990286FD8C
:1009600013C010C089E311C082EE0FC080EE0DC02D
:1009700080E00BC086EE09C084EE07C089E205C0A6
:1009800085E303C08AE201C081E390E0089590917D
:10099000990292FF0DC0282F2871283019F4877F03
:1009A000846006C0282F2471243011F48B7F886066
:1009B00093FF0DC0282F2871283119F4877E846198
:1009C00006C0282F2471243111F48B7E8861209178
:1009D0009A0220FF0DC0382F3871383019F4877F04
:1009E000816006C0382F3171313011F48E7F8860FC
:1009F00021FF0DC0282F2871283119F4877E8161CD
:100A000006C0282F2171213111F48E7E886194FD5A
:100A1000877E089508950E94FF1E811102C00E94E2
:100A2000A71F0E940A1F80938D020E94121F90939D
:100A30009A02809399020E940A050E940E1F682F55
:100A400070E080E090E00E94471C60917802709115
:100A5000790280917A0290917B020C947F1CE82F9E
:100A6000F0E0EE0FFF1FE356FD4F80819181089566
:100A7000089580EA8A95F1F7089500C008950C94CE
:100A8000390508950C9441050C9442050C942C02F0
:100A9000F894E82FE295EF70F0E031A1282F2F7045
:100AA00081E090E001C0880F2A95EAF7982F909591
:100AB000932391A392A1892B82A378940895CF9335
:100AC000DF9384E90E944805CDE5D1E089910E9439
:100AD000480581E0C736D807C9F710929C021092EA
:100AE0009B0210929E0210929D0281E00E94CD0511
:100AF000DF91CF910C947D02CF93DF93F894549AB9
:100B00005C9878940E943D05ADE5B1E020E030E0CE
:100B1000C0E0D0E061E070E04D91E42FE295EF702D
:100B2000F0E080A190E04F7002C0959587954A95BE
:100B3000E2F780FD08C0CB01022E02C0880F991F8A
:100B40000A94E2F702C080E090E0C82BD92B2F5F17
:100B50003F4F2A30310501F784E90E9448050E9481
:100B60003F0580919B0290919C02C817D90731F0F4
:100B7000D0939C02C0939B02C1E001C0C0E02C2F27
:100B800041E06DE972E08BE992E00E94CE050E949F
:100B900081028C2FDF91CF9108950895FF920F93DA
:100BA0001F93CF93DF93F82E092F162FD72FC42F23
:100BB000222349F081E08093C8010E948120909314
:100BC000C7018093C6018091C8018823D9F0809124
:100BD000C6019091C7010E949920069798F0EF2DC9
:100BE000F02FA12FBD2F80E090E04C2F50E0841714
:100BF000950734F4219131912D933D930196F7CFD0
:100C00001092C801DF91CF911F910F91FF9008952D
:100C10008091CF0180FF0BC06091090185E0689F42
:100C2000B001112475956795759567952BC081FF67
:100C300009C06091090185E0689FB0011124759594
:100C4000679520C082FF07C06091090185E0689F19
:100C5000B001112417C09091CE019923D1F0609179
:100C60000801961788F72091090185E0289F9001D7
:100C70001124929FA001939F500D112470E0CA018E
:100C80000E94172B6038710540F46115710519F445
:100C900006C065E070E0862F08958FE7089581E033
:100CA00008958091CF0180FF08C06091050170E038
:100CB000759567957595679521C081FF06C0609110
:100CC000050170E07595679519C082FF04C06091B9
:100CD000050170E010C09091CD01992399F06091C9
:100CE00004019617A0F780910501899FC001112486
:100CF00070E00E94172B6038710540F46115710592
:100D000019F406C061E070E0862F08958FE708951A
:100D100081E008958D3E21F40E940806819504C06B
:100D20008E3E29F40E9408068093D30108958F3ED9
:100D300021F40E940806819504C0803F29F40E9496
:100D400008068093D2010895893F19F40E94510644
:100D500005C08A3F31F40E94510681958093D401E9
:100D600008958B3F21F40E945106819504C08C3F69
:100D700029F40E9451068093D50108959FE0980FB1
:100D8000983078F421E030E0A90102C0440F551FEB
:100D90009A95E2F7CA019091D101892B8093D101F4
:100DA00008958D3F21F48091CF0181600BC08E3F6B
:100DB00021F48091CF01826005C08F3F29F480919A
:100DC000CF0184608093CF0108958D3E39F49091D6
:100DD000D30197FF35C01092D30159C08E3E29F43C
:100DE0009091D3011916BCF32BC09091D2018F3E84
:100DF00029F497FF25C01092D20149C0803F19F411
:100E00001916CCF31DC09091D401893F29F419160D
:100E1000BCF41092D4013BC08A3F19F497FF10C074
:100E2000F8CF8B3F39F49091D50197FF09C010920C
:100E3000D5012DC08C3F21F49091D5011916BCF33A
:100E40009FE0980F983080F421E030E0A90102C0C3
:100E5000440F551F9A95E2F7CA0180959091D101F0
:100E600089238093D10113C08D3F21F48091CF015C
:100E70008E7F0BC08E3F21F48091CF018D7F05C006
:100E80008F3F29F48091CF018B7F8093CF01809198
:100E9000D201811106C08091D301811102C010924C
:100EA000CE018091D401811106C08091D5018111BC
:100EB00002C01092CD0108950E9481202091D2019C
:100EC000211104C02091D301222321F09093CC0161
:100ED0008093CB012091D401211104C02091D50130
:100EE000222321F09093CA018093C90180ED91E003
:100EF0000C944213EF92FF920F931F93CF93DF93C3
:100F000000D000D000D0CDB7DEB786E0E0EDF1E054
:100F1000DE01119601900D928A95E1F7E090D201E1
:100F2000F090D3010091D4011091D5011092D2011B
:100F30001092D3011092D4011092D501E11003C098
:100F4000FF2009F45DC08091CB019091CC010E94FB
:100F50009920AC019091CE01992339F020910A019A
:100F600030E02417350758F04BC020910B018AE080
:100F7000289F900111242417350718F041C09F3F86
:100F800019F09F5F9093CE01EE2061F00E94080659
:100F90001E1414F09FEF01C091E0989F902D112432
:100FA0009093D201FF2061F00E9408061F1414F0F4
:100FB0009FEF01C091E0989F902D11249093D30151
:100FC0003091D2013323E1F02091D3012223C1F0EB
:100FD00045EB3403C0011124992319F09093D201F9
:100FE00003C081E08093D20135EB2303C0011124BB
:100FF000992319F09093D30103C081E08093D3012A
:10100000011103C0112309F45DC08091C9019091C1
:10101000CA010E949920AC019091CD01992339F029
:101020002091060130E02417350758F04BC020917D
:1010300007018AE0289F900111242417350718F032
:1010400041C09F3F19F09F5F9093CD01002361F055
:101050000E945106101614F09FEF01C091E0989F76
:10106000902D11249093D401112361F00E94510618
:10107000111614F09FEF01C091E0989F902D11245C
:101080009093D5013091D4013323E1F02091D50123
:101090002223C1F045EB3403C0011124992319F038
:1010A0009093D40103C081E08093D40135EB2303F6
:1010B000C0011124992319F09093D50103C081E058
:1010C0008093D5018091D20181110BC08091D30111
:1010D000811107C08091D401811103C08091D50195
:1010E00081110E945C07EB82FC820D831E8386E0E7
:1010F000FE013196A0EDB1E001900D928A95E1F7E5
:1011000026960FB6F894DEBF0FBECDBFDF91CF910C
:101110001F910F91FF90EF900895E0EDF1E086E0D0
:10112000DF011D928A95E9F71092CE011092CD0150
:101130001092CF010895EF92FF920F931F93CF93D8
:10114000DF938B01682F11110AC0442329F0E82F87
:10115000F0E0EC57FE4F6491762F862F75C0212F5B
:1011600030E0E82FF0E0442321F0EC57FE4FE4910B
:10117000F0E046E0049FC0011124CFEFD0E0BE01B3
:101180000E94032B4BEA4603C001479F900D112498
:10119000800F911D800F911D982F990F890FAE011F
:1011A000421B530B4E9FD0014F9FB00D5E9FB00D61
:1011B00011249B2F189FA0011124452F55278E0124
:1011C000041B150B0E9FA0010F9F500D1E9F500D6D
:1011D00011247E01E81AF108E29E8001E39E100DC1
:1011E000F29E100D1124212F3327C21BD30BCE9F4B
:1011F0009001CF9F300DDE9F300D112462307105BC
:10120000A9F048F46115710569F061307105C9F400
:101210008B2F752F0DC06430710581F058F066304A
:10122000710579F47E2F8B2F932F0DC0832F7B2F89
:101230009E2F09C08E2F7B2F952F05C08E2F732FC9
:1012400002C07E2F852F692FDF91CF911F910F91C3
:10125000FF90EF90089541E00E949B080895089543
:10126000682F70E080E090E00E94EA2820E030E003
:101270004FE753E40E940D282BED3FE049E450E492
:101280000E94132A0E94802A0E9487282BE43AE3B6
:101290004EE25FE30E94A02720EF3BEF48ED52E4CF
:1012A0000E94132A0E94B928862F08950E942B09B4
:1012B0000895CF93DF93762FE901682F842F0E9442
:1012C0005609798368838A83DF91CF91089580914D
:1012D0009F02282F269530E02115310519F48170E1
:1012E000826005C02B32310524F0817084658093C3
:1012F0009F02089588E090E00C94F52BCF92DF9246
:10130000EF92FF926B017C010E946709B701A60171
:1013100088E090E0FF90EF90DF90CF900C94132C3A
:10132000EFE9F2E083E0808311828FEF8283838391
:10133000148260817181828193810C947E098091F5
:101340009F0280FF02C08695089580E008959091E5
:10135000A302933018F49F5F9093A302882351F067
:1013600060919F027091A0028091A1029091A202CF
:101370000C947E09089581E00C94A7099091A30232
:10138000992319F091509093A302882351F0609112
:101390009F027091A0028091A1029091A2020C94F0
:1013A0007E09089581E00C94BE0970E00C94DA1077
:1013B0006091100180919F0280FF0AC080910F010F
:1013C00023E0829FC00111248C559D4F0C94D509B8
:1013D0008091110190911201891780F7E82FF0E0B8
:1013E0009F01220F331FE20FF31FEC55FD4F1182B7
:1013F000108212828F5FF0CF90919F0290FF16C0F3
:101400009091110120911201921770F4E92FF0E0F0
:10141000DF01AA0FBB1FEA0FFB1FEC55FD4F8183B5
:10142000608342839F5FF0CF0C94D8090895CF93D7
:10143000DF9300D01F92CDB7DEB790919F0290FF4F
:101440000AC09E012F5F3F4F0E9459094B8169815D
:101450008A810E94FC090F900F900F90DF91CF912D
:101460000895CF93DF93EC018C810E943009EFE95E
:10147000F2E0482F628181810E94170A8C818F5F80
:101480008C83DF91CF910895CF93DF93EC01EFE947
:10149000F2E0438162818C810E94170A8C818F5F08
:1014A0008C83DF91CF9108950F931F93CF93DF9398
:1014B00000D01F92CDB7DEB78C018091D60181118B
:1014C0000AC09E012F5F3F4F4FEF6FEF0E945909F7
:1014D0008A818093D601F8018481813051F028F00F
:1014E000823061F44091D6010AC08091D60140E07B
:1014F00007C06091D60140E080E003C040E080E09A
:1015000060E00E94FC09F801848190E0019663E0AC
:1015100070E00E94172B84830F900F900F90DF9143
:10152000CF911F910F910895AF92BF92CF92DF920A
:10153000EF92FF920F931F93CF93DF9300D01F92F0
:10154000CDB7DEB7182FF62E042FE22E90919F0212
:1015500090FF6DC0E92FE695AE2FB0E0A959BE4FC0
:101560008C9180931E029E7F923061F49E012F5FCA
:101570003F4F812F0E9459094B8169818A810E94C6
:10158000FC0943C0823019F40091A2023EC08630AB
:1015900019F41091A00239C08930D9F38931A9F525
:1015A000E9518E2F8170D82EE695F0E0E158FE4F7C
:1015B000A590B490C12CBB2460911301C61618F5F8
:1015C0002C2D30E0A29EC001A39E900DB29E900DE6
:1015D000112470E00E94032B812FD11002C0860FCE
:1015E00001C0861B90911101290F311DA901440FE3
:1015F000551F240F351F2C553D4F402F6F2D0E9436
:101600005909C394D9CF0E94D8091093A002F0922F
:10161000A1020093A202EE2051F060919F0270910E
:10162000A0028091A1029091A2020E947E090F90D7
:101630000F900F90DF91CF911F910F91FF90EF903E
:10164000DF90CF90BF90AF900895EFE9F2E09181E5
:10165000282F4381628188E0890F0C94940A81E0ED
:101660000C94250BEFE9F2E09181282F43816281F0
:1016700088EF890F0C94940A81E00C94320BEFE907
:10168000F2E0628128E0620F08F46FEF282F4381B7
:1016900081810C94940A81E00C943F0BEFE9F2E015
:1016A000628128E0621B08F460E0282F4381818179
:1016B0000C94940A81E00C944E0BEFE9F2E0438124
:1016C00028E0420F08F44FEF282F628181810C94AB
:1016D000940A81E00C945D0BEFE9F2E0438128E08D
:1016E000421B08F440E0282F628181810C94940A07
:1016F00081E00C946C0B20E00C94940AFF920F9301
:101700001F93CF93DF93EC01F12C0FEF10E060916A
:101710001301F616F0F4809111012F2D30E0280FFF
:10172000311DC901880F991F280F391F2C553D4FB6
:1017300070E0C8010E94172B962F8C814091A20265
:101740006091A102F99E800D11240E945909F39421
:10175000DECF0E94D8099A818C8190FF02C08F5FF2
:1017600001C081508C83DF91CF911F910F91FF9029
:101770000895AF92BF92CF92DF92EF92FF920F93B4
:101780001F93CF93DF93FC01828180FF02C00FEF94
:1017900001C001E010E04CE0A42E80911301181765
:1017A00008F043C080911101C12ED12CE601C80F71
:1017B000D11DCE01880F991FC80FD91FCC55DD4F01
:1017C000198218821A8234E0E32EF12CB12C809118
:1017D000D8018B0D8D302CF06A2D0E94F52A892FAF
:1017E00005C087FF03C090911301890F082E000CDC
:1017F000990BC816D90691F48091A2028E9DA00182
:101800008F9D500D112455954795559547959E01EF
:101810006091A1028091A0020E945909B00EF1E0EE
:10182000EF1AF108A1F61F5FB8CF0E94D809809186
:10183000D801013031F4811102C08091130181502F
:1018400007C090E001966091130170E00E94172B91
:101850008093D801DF91CF911F910F91FF90EF906E
:10186000DF90CF90BF90AF900895CF9380911101FA
:1018700090911201891770F4E82FF0E09F01220F78
:10188000331FE20FF31FEC55FD4F118210821282BD
:101890008F5FF0CFC0E060911301C617C0F5EC2F49
:1018A000F0E070E0CF010E94172B20911101820F10
:1018B0002091D701022E000C330B90E0E217F307C2
:1018C000CCF020910E01022E000C330B2E173F0797
:1018D0008CF09C01220F331F820F931F9C012C550B
:1018E0003D4F4091A2026091A1028091A0020E940E
:1018F00059090BC0FC01EE0FFF1F8E0F9F1FFC014B
:10190000EC55FD4F118210821282CF5FC4CF0E942E
:10191000D80920910D018091D701820F8093D701C2
:1019200090910E01920F90930E0119165CF4082EFF
:10193000000C990B4091130150E04150510984175C
:1019400095071CF0219520930D01CF9108958F925A
:101950009F92AF92BF92CF92DF92EF92FF920F933E
:101960001F93CF93DF938C01FC014481C42FD0E0FF
:101970009E01DE010E945B2B9B01AC010E94712B3A
:101980006B017C01E0E2F0E0EC1BFD0BA5E5B0E0B3
:101990009B01AC010E94712B4B015C019F01DF0197
:1019A0000E94532B9B01AC010E947C2B9B01AC013C
:1019B0002C0D3D1D4E1D5F1DC501B4010E942B2B3A
:1019C000C22FD22F2A3228F4F3E02F9F9001112446
:1019D0000DC025E530E02C1B3109C901880F991F86
:1019E000280F391F37FF02C02F5F3F4F35952795CE
:1019F000C22FC095F12C85E5E82EED1A80911301D8
:101A0000F816C8F4F1FC02C08E2D01C08D2F909104
:101A100011012F2D30E0290F311DA901440F551F51
:101A2000240F351F2C553D4F4C2F6091A1020E9471
:101A30005909F394E3CF0E94D809F80184818111F8
:101A400002C091E003C0803219F49FEF90930C0123
:101A500090910C01890FF8018483DF91CF911F9140
:101A60000F91FF90EF90DF90CF90BF90AF909F903D
:101A70008F9008950F931F93CF93DF93EC0100E0B5
:101A800010E080911301282F30E00217130724F58E
:101A9000909111019801290F311DA901440F551F83
:101AA000240F351F2C553D4F869590E04C8108172B
:101AB00019071CF4442331F002C0411103C04091C6
:101AC000A20201C040E06091A1028091A0020E94A8
:101AD00059090F5F1F4FD5CF0E94D8098C8190E024
:101AE0000196817099278C83DF91CF911F910F917F
:101AF00008957F928F929F92AF92BF92CF92DF9282
:101B0000EF92FF920F931F93CF93DF93FC0192808C
:101B1000748081E0848380E00E943009882E8FE702
:101B20000E943009A12CF5E0BF2ECC24CA94D12C00
:101B30008819E82EF12C80911301A81608F09FC097
:101B40000A2D10E022E0291568F0B09EF001B19E48
:101B5000F00D1124E752FE4F8091A0028083809106
:101B6000A102818371100AC0B09EF001B19EF00DF8
:101B70001124E752FE4F1382128267C0B09EE0012B
:101B8000B19ED00D1124C752DE4F8B818823E1F026
:101B900081508B832FEF829FC00111246C8170E0F4
:101BA0000E94032B862F0E94300988192FEF829FF5
:101BB000C0011124B7010E94032B8091A202689FEB
:101BC000B00111247A8341C00E94D02B2091A2023F
:101BD0002695215830E0A901440F551F322F2227A6
:101BE000240F351F232F33278217930774F582E0C4
:101BF000891588F40E94D02BB6010E94172B888388
:101C00000E94D02B2091A1022695622F70E00E94A5
:101C1000172B280F2983B09EF001B19EF00D1124DF
:101C2000E752FE4F12828091A202843120F0893C5B
:101C300018F088EC01C084E1B09EF001B19EF00D77
:101C40001124E752FE4F8483838380911101980110
:101C5000280F311DC901880F991F280F391F2C55D6
:101C60003D4FB09EF001B19EF00D1124E752FE4FA2
:101C70004281618180810E945909A3945CCFDF91E8
:101C8000CF911F910F91FF90EF90DF90CF90BF9079
:101C9000AF909F908F907F900C94D809EFE9F2E07D
:101CA00080818E7F808360817181828193810E9497
:101CB0007E0910921F022FEF80E792E021508040B2
:101CC0009040E1F700C000000C94D809EFE9F2E081
:101CD00080818E7F808310921F022FEF80E792E039
:101CE000215080409040E1F700C000000C94D809DA
:101CF00010921F0280911C0281110AC081E0809322
:101D00001C0280919F02817080931B020C94660ECE
:101D1000089560919F02669570E04BE050E084E189
:101D200091E00E94E02B892B19F481E080931F023F
:101D30000E9481209093160280931502089590913D
:101D40009F0290FF35C09170811102C0926006C061
:101D50008B3210F0946502C0880F982B90939F02ED
:101D6000662351F060919F027091A0028091A102C0
:101D70009091A2020E947E0960919F02669570E098
:101D80004BE050E084E191E00E94E02B892B19F0B8
:101D900010921F0202C00E94890E81E080931802F7
:101DA0004091A2026091A1028091A0020C947B0B51
:101DB0000895682F90919F02969581E0890F8B324C
:101DC00008F081E00C949F0E81E00C94D90E682FEE
:101DD00090919F0296958FEF890F09F48AE20C94F7
:101DE0009F0E81E00C94E70E61E00C949F0EEFE9EA
:101DF000F2E080818160808386950C94F40E80915E
:101E00009F0280FD0C944E0E0C94F70E60E00C9433
:101E10009F0E80911D0281112EC00E94FF1E811114
:101E200004C00E94A71F0E9490090E947A09609333
:101E30009F027093A0028093A1029093A2026E7FF2
:101E400061F40E9490090E947A0960939F02709346
:101E5000A0028093A1029093A2020E9467091092AF
:101E60001F0280919F0280FF03C086950E94060F8B
:101E700081E080931D020895EFE9F2E080818160A6
:101E8000808386950C94060F10921C0280911B0291
:101E900081110E943C0F0C94890E0F931F93CF93D6
:101EA000DF9380911F02882309F495C080911E0260
:101EB000E0919F02E695E81BE0931702823049F417
:101EC000F0E0E558FE4FE491CE2FD0E001E31AE0B8
:101ED00059C0863049F4F0E0E858FE4FE491CE2F27
:101EE000D0E004E41AE04EC0893051F4E695F0E009
:101EF000EB58FE4FE491CE2FD0E00EE71BE042C03E
:101F00008F3051F4E695F0E0EE58FE4FE491CE2F7D
:101F1000D0E009EB1BE036C0853149F4F0E0E1592F
:101F2000FE4FE491CE2FD0E005E31CE02BC08831BA
:101F3000D9F0833239F4EDE6F1E0C591D49104E5AE
:101F40001AE020C08432A9F08532C1F48E2F63E0FC
:101F50000E94E92AE92FF0E0E659FE4FE491CE2FE6
:101F6000D0E009E71DE00EC0C8E2D0E007EA1CE0BF
:101F700009C0C4EFD1E00AE31DE004C0C0EDD7E022
:101F80000FE219E080911802882361F01092180284
:101F90000E948120909316028093150210921A02DB
:101FA000109219020E948120E0911502F091160210
:101FB0008E1B9F0B8F3F9F4770F4EC0FFD1FF0931C
:101FC0001602E093150285E192E0F801DF91CF91CE
:101FD0001F910F910994DF91CF911F910F91089557
:101FE000882311F0FA0101C0FB010994CF93DF931C
:101FF000C82FD62F0E949F098C1740F00E949F097E
:102000008D1720F4DF91CF910C94E40E8C2FDF918B
:10201000CF910C94F40E1F93CF93DF93FB011281A9
:10202000112309F4C1C0EC010E943E1E8272CD3C16
:10203000FCE5DF0709F49BC008F043C0C73CECE5B2
:10204000DE0709F480C0D8F4C43C9CE5D90709F444
:102050006DC038F4C33CDC4509F0A7C00E94FF0EF8
:102060006BC0C53C9CE5D90709F468C0C63CDC459B
:1020700009F09BC04CE35BE06FE27BE05BC0CA3CD5
:10208000FCE5DF0709F469C070F4C83CECE5DE0745
:1020900009F45EC0C93CDC4509F087C04BE45BE055
:1020A0006AE57BE047C0CB3C9CE5D90709F45AC000
:1020B000CC3CDC4509F079C042ED59E06BEB79E0AE
:1020C00039C0C23DFCE5DF0709F45EC098F4CF3C9F
:1020D0009CE5D90709F452C008F44EC0C03DFCE5A8
:1020E000DF0709F44EC0C13DDC4509F05EC06EE07B
:1020F00089E057C0C53D9CE5D90709F44BC058F4A9
:10210000C33DFCE5DF0709F442C0C43DDC4509F0EE
:102110004CC088E143C0C63D9CE5D907F1F1CE35FE
:10212000DD4509F042C06AE285E23BC041EF5EE076
:1021300064EE7EE00E94F00F10E037C044EE5EE0F7
:1021400061EF7EE0F7CF4FE25BE06CE37BE0F2CF44
:102150004AE55BE06BE47BE0EDCF48E75BE069E6F6
:102160007BE0E8CF49E65BE068E77BE0E3CF4BEB61
:1021700059E062ED79E0DECF81E010C065E082E0F9
:1021800010C068E086E00DC064E18FE00AC067E13E
:1021900085E107C062E289E104C083E20E94F40E97
:1021A000CBCF0E94F60FC8CF11E0812FDF91CF91E6
:1021B0001F910895849A21B32F7E31B330614FB7B8
:1021C000F894FC01CB01880F991F680F791F6E0FDF
:1021D0007F1FE617F70789F0819198E031BB000077
:1021E00000C087FF21BB880F000000C000C000C0F6
:1021F00021BB00C09A9591F7ECCF4FBF8FE594E0DB
:102200000197F1F700C0000008950F931F93CF933B
:10221000DF93C42FD22FFC0182818823C9F0409321
:1022200022020E948120909321028093200280E26A
:102230008C0F883008F057C0C77081E001C0880F4C
:10224000CA95EAF7DF91CF911F910F910C94C415B5
:1022500080912202481330C0809120029091210287
:102260000E949920883C910538F510E21D0FCD178A
:10227000B9F080E28C0F883040F4C77081E001C073
:10228000880FCA95EAF70E94CB15183028F581E02F
:102290009D2F977001C0880F9A95EAF70E94C41588
:1022A000802F0E94BB151830F0F4D77081E001C078
:1022B000880FDA95EAF70AC080E28C0F883098F42C
:1022C000C77081E001C0880FCA95EAF7DF91CF910E
:1022D0001F910F910C94CB15802FDF91CF911F91FF
:1022E0000F910C94BB15DF91CF911F910F91089521
:1022F0000F939C01CB01243F4CE5340731F188F466
:10230000293DFCE53F07D9F02A3D4CE5340779F13A
:10231000283D3C45A9F506E221EE41EE68ED7CE55D
:102320002BC0263FFCE53F07E1F0A8F0273F3C45E6
:1023300039F507E225EE46EE67EF7CE51DC007E2C2
:1023400025EE45EE69ED7CE517C006E221EE40EE94
:1023500064EF7CE511C007E225EE44EE65EF7CE515
:102360000BC006E221EE42EE66EF7CE505C008E216
:1023700021E045EE6AED7CE50E94051180E008C091
:10238000FC018281882319F01092220201C081E0B1
:102390000F910895CF93DF93EC01FB018281882395
:1023A00009F41FC1C230FCE5DF0708F41BC1C631C8
:1023B0009CE5D90738F09E012B5F3C45293031055B
:1023C00008F010C10E94121F90939A028093990204
:1023D000C031ECE5DE0709F4C3C008F041C0C830E5
:1023E0008CE5D80709F49AC0F0F4C430ECE5DE07B8
:1023F00009F487C068F4C2308CE5D80709F477C0C7
:10240000C330DC4509F0E3C080919902826076C058
:10241000C630ECE5DE0709F46EC008F07BC08091A1
:10242000990288606BC0CC308CE5D80709F485C070
:1024300068F4CA30ECE5DE0709F474C008F079C02E
:102440000E94511880919902806858C0CE308CE566
:10245000D80709F476C008F07FC0809199028BC03C
:10246000CC3FECE5DE0709F44FC018F5C3318CE52D
:10247000D80709F47DC078F4C131ECE5DE0709F432
:1024800073C0C231DC4509F0A2C00E94511880918E
:1024900099028F7733C0C5318CE5D80709F472C033
:1024A00008F486C0CB3FDC4509F091C080919A02C8
:1024B0003EC0C115FDE5DF0709F45FC058F4CE3F0B
:1024C0009CE5D90709F444C008F43FC080919A0202
:1024D00082602DC0C230FDE5DF0709F475C008F445
:1024E0005DC0C330DD4509F072C080E06EC08091F0
:1024F0009902816003C08091990280618093990262
:1025000066C08091990211C080919A028260809386
:102510009A025DC0809199028062F0CF8091990209
:102520008064ECCF8091990288608460E7CF8160FD
:10253000EECF809199028E7FE1CF809199028D7FBD
:10254000DDCF80919902877FD9CF80919A0218C000
:1025500080919A028D7FDBCF809199028F7ECECFC2
:10256000809199028F7DCACF809199028F7BC6CFCF
:1025700080919902877F8B7FC1CF80919A028D7F56
:102580008E7FC5CF8091990282FB222720F991E0AE
:10259000922790FB82F990FB83F9B0CF80919A0249
:1025A000982F909591708E7F892B90FB81F9AFCFFA
:1025B0000E9451188091990287FB222720F991E00F
:1025C000922790FB87F99ACF81E00E94A91F809102
:1025D000990290919A020E94231F0E94511880E054
:1025E00001C081E0DF91CF910895CF93DF938631D1
:1025F0009C4541F5EB010E943E1E982F8A81209157
:102600001F0130912001882379F09A7A81E009F442
:1026100080E080932302911102C069E201C065E36A
:10262000C9010E94F01F0AC080912302811102C0DB
:1026300069E201C065E3C9010E94F21F0E94901E79
:1026400080E001C081E0DF91CF910895909329024D
:10265000809328020895E0912802F0912902309792
:1026600021F00190F081E02D099480E00895E0913F
:102670002802F0912902309721F00280F381E02DA9
:1026800009940895E0912802F0912902309739F0D9
:1026900022E0DC012C930480F581E02D099408955B
:1026A00020912602309127022817390771F0909364
:1026B000270280932602E0912802F09129023097A8
:1026C00021F00680F781E02D0994089520912402DD
:1026D000309125022817390771F0909325028093D5
:1026E0002402E0912802F0912902309721F0008421
:1026F000F185E02D099408950E948D2060933102A8
:1027000070933202809333029093340260932D02CF
:1027100070932E0280932F0290933002089585B714
:10272000806885BF85B7806885BF089581E008957A
:102730000C94961308950C949A130C949A130C9479
:102740009D130C949A130C94A1130C949A130E9449
:102750008F138DEF9EE10E94DF200E94A5130C9441
:10276000A3130E949B130C949A130E9478200E943A
:102770005F050E94090F0C949F13AF92BF92CF92F6
:10278000DF92FF920F931F93CF93DF93CDB7DEB706
:102790002A970FB6F894DEBF0FBECDBF0E947C050E
:1027A00081110E947C1380E00E942F056C01A09093
:1027B0002B02B0902C02A826B926A114B10489F4EA
:1027C0008FEF89838A831B820E9481208160782F0A
:1027D0009D838C8349815A816B818D810E9458141D
:1027E00038C080918D0281FD0E943805F12C01E0F6
:1027F00010E0C50180239123892B21F10E949813B9
:102800008823A9F0FE821F82C022D12281E0CD2838
:1028100009F480E088870E9481208160782F9A8760
:1028200089874E815F8168858A850E9458148091CE
:102830002B0290912C020827192710932C02009349
:102840002B0207C0F394000F111F8AE0F812D1CFBA
:10285000B7CF0E944D0F0E947A070E942B139091D0
:102860002A028917A9F00E942B1380932A022A9624
:102870000FB6F894DEBF0FBECDBFDF91CF911F9191
:102880000F91FF90DF90CF90BF90AF900C94F30228
:102890002A960FB6F894DEBF0FBECDBFDF91CF9161
:1028A0001F910F91FF90DF90CF90BF90AF90089550
:1028B000DF92EF92FF920F931F93CF93DF93CDB7E9
:1028C000DEB72B970FB6F894DEBF0FBECDBFF42E48
:1028D000052F162FE72ED82E61110E945E1EFE01D5
:1028E000319686E0DF011D928A95E9F77E2D4F2D06
:1028F000502F612F8D2D9E810E940A1B2B960FB6A3
:10290000F894DEBF0FBECDBFDF91CF911F910F9125
:10291000FF90EF90DF900895FC01808191810E94EB
:10292000DE1D0895CF93882309F4A4C0C82F8238F0
:10293000C1F40E942B1381FD9DC069E380911F01AA
:10294000909120010E94F01F0E94901E2FEF81EEB7
:1029500094E0215080409040E1F700C0000069E31E
:1029600019C0833801F50E942B1380FD83C063E5F5
:1029700080911F01909120010E94F01F0E94901EE3
:102980002FEF81EE94E0215080409040E1F700C0AD
:10299000000063E580911F01909120010E94F21FC9
:1029A000CF910C94901E8438C1F40E942B1382FDA9
:1029B00061C067E480911F01909120010E94F01F87
:1029C0000E94901E2FEF81EE94E0215080409040B5
:1029D000E1F700C0000067E4DDCF8CEF8C0F813A97
:1029E000D0F46C2F80911F01909120010E94BA1F9A
:1029F000882349F06C2F80911F01909120010E9443
:102A0000F21F0E94901E6C2F80911F019091200157
:102A10000E94F01FC5CF80E28C0F883048F4C77049
:102A200081E001C0880FCA95EAF70E94411EB8CF25
:102A3000EBE5EC0FE33040F4F0E0E054FE4F808132
:102A400090E0CF910C945013E8E5EC0FE73150F48F
:102A5000F0E0EE0FFF1FEE56FE4F80819181CF9187
:102A60000C946613CD3E30F08C2F0E948A06CF91D5
:102A70000C945C07CF910895882309F464C08238D0
:102A800079F40E942B1381FF5EC069E380911F01DE
:102A9000909120010E94F01F0E94901E69E310C0D7
:102AA0008338B1F40E942B1380FF4DC063E5809101
:102AB0001F01909120010E94F01F0E94901E63E56B
:102AC00080911F01909120010E94F21F0C94901E92
:102AD000843879F40E942B1382FF35C067E480911B
:102AE0001F01909120010E94F01F0E94901E67E438
:102AF000E7CF9CEF980F913A10F4682FE1CF90E266
:102B0000980F983050F4877091E001C0990F8A9522
:102B1000EAF7892F0E94471ED9CF9BE5980F933083
:102B200020F480E090E00C94501398E5980F9731D2
:102B300020F480E090E00C9466138D3E20F00E941B
:102B4000E5060C945C0708951F93CF93DF93182F2D
:102B5000EB010E949214209741F08FE99FE00197CA
:102B6000F1F700C000002197F6CF812FDF91CF91C0
:102B70001F910C943C15893319F060E070E002C09D
:102B800060E570E00C94A415882321F00E94411E9A
:102B90000C94901E0895882321F00E94471E0C94E7
:102BA000901E0895CF92DF92EF92FF920F931F93A2
:102BB000CF93DF937C01062FC72FFC01D2811581B3
:102BC00012951F700E94161E882399F0DD2389F04C
:102BD0008C2F807F803421F080E2800F883048F095
:102BE00082E00E94E01E0E94161E91E0D82ED92697
:102BF00001C0D12CCC2EC2948FE0C8228C2D90E045
:102C0000FC01EA5AFF4F0C944D2B8C2F807FCF7024
:102C1000882311F0C295C07FDD2399F0CC2309F4FD
:102C20008DC180E2800F883010F0011104C08C2F1C
:102C30000E94411E03C08C2F0E94511E0E94901EB4
:102C40007DC1802F0E943C15CC2309F49CC180E2F9
:102C5000800F883010F0011104C08C2F0E94471E95
:102C600003C08C2F0E94571E0E94901E8CC18C2F77
:102C7000807FCF70803211F0C295C07F002319F0A1
:102C80000130C9F022C0DD2371F0112341F0113071
:102C900031F40E94711E8C2B0E94791E74C10E9417
:102CA000711E8C2B1DC0112319F0113009F46BC15A
:102CB0000E94861E25C0DD2321F0163008F063C176
:102CC0000EC0153008F05FC11BC0DD2361F0112379
:102CD00031F0F701858180FF31C18F7085838C2FA2
:102CE0000E94C41550C1112359F0093309F037C1AE
:102CF000FFEF27EE83E0F15020408040E1F72DC147
:102D00008C2F0E94CB153FC18C2F869586958370A2
:102D100019F0813061F037C1DD2321F0802F9C2F25
:102D2000937002C080E090E00E94501334C1DD2314
:102D300021F0802F9C2F937002C080E090E00E94D1
:102D4000661329C1802FDD2319F00E948A0602C074
:102D50000E94E5060E945C071EC18C2F837009F05B
:102D600045C0D11114C1402F429546954770440F7C
:102D7000440F602F6F70862F90E0A0E0B0E0042E2B
:102D800004C0880F991FAA1FBB1F0A94D2F704FF23
:102D900010C00FE010E020E030E004C0000F111F71
:102DA000221F331F4A95D2F7009510952095309534
:102DB00003C000E010E09801C695C695C370BC0141
:102DC000CD01602B712B822B932BC23049F058F42C
:102DD000C13019F00E945B1CDAC00E94491CD7C0A8
:102DE0000E946D1CD4C00E94471CD1C0DD2319F085
:102DF0008C2F817001C08695882309F4C8C0402FAC
:102E0000429546954770440F440F602F6F70862F90
:102E100090E0A0E0B0E0042E04C0880F991FAA1F24
:102E2000BB1F0A94D2F704FF10C00FE010E020E0AF
:102E300030E004C0000F111F221F331F4A95D2F744
:102E4000009510952095309503C000E010E09801A2
:102E5000C695C695C370BC01CD01602B712B822B2A
:102E6000932BC23049F058F4C13019F00E94201D54
:102E70008EC00E940E1D8BC00E94321D88C00E9411
:102E8000811C85C0CF70DD2339F08C2F0E94A71CD8
:102E9000802F0E94C4157BC0802F0E94CB158C2FE1
:102EA0000E94C81C74C0023F01F128F4003F41F0A9
:102EB000013FA1F03FC0033FF9F0043F39F13AC0B0
:102EC000DD2341F0153008F05EC08C2F8F710E9419
:102ED000ED1C59C0163008F056C0F7CFDD2339F08D
:102EE0008C2F8F710E94A71C4EC0DD23C9F38C2F3D
:102EF0008F710E94C81C47C0DD2329F08C2F8F7171
:102F00000E94921C40C00E948D1C3DC0DD2349F0F0
:102F1000CF718C2F0E94A71C63E08C2F0E94C51ECE
:102F200032C081E00E94E01E123068F182E00E940F
:102F3000E01E29C0DD2331F0112391F2802F0E9481
:102F4000921421C0112399F2093349F49FEFE7EE5F
:102F5000F3E09150E040F040E1F700C00000802F26
:102F60000E943C1510C04C2F4F70602FC7010E946B
:102F7000FC020E94B81B0FC04C2F4F70602FC7017E
:102F80000E94FF0208C088EF8C0D843020F40E945C
:102F90002B130E94F302DD20C9F00E94121E80FD57
:102FA00015C0F70112820E940C1E0E94A71CC701C7
:102FB0000E9407180E940C1EDF91CF911F910F9164
:102FC000FF90EF90DF90CF900C94C81CDF91CF91D1
:102FD0001F910F91FF90EF90DF90CF9008950F9386
:102FE0001F93CF93DF93EC01688179818A810E94DE
:102FF000E91D8C010E94441D0E94351CB801CE01C0
:103000000E94D215DF91CF911F910F910895CF9318
:10301000DF93EC01988189812B813C81232B31F056
:103020008F3F31F481E09F3F19F403C081E001C07C
:1030300080E080FD19C0CE010E94930281110CC076
:103040000E94161E882381F08A81882369F082E01D
:10305000DF91CF910C94E01ECE010E94EF17CE01BC
:10306000DF91CF910C947202DF91CF91089580E0AF
:1030700090E00E94501380E090E00E9466130E944E
:103080005E1E0E946E1E0E94901E0E948D080C946F
:103090005C0780911F01909120010E94F41F0C9405
:1030A00037180E944E1E0C944918E92FE295EF70D4
:1030B0004E2F50E0FA013297EE30F105B0F4EA59A4
:1030C000FF4F0C944D2B803F91F018F4883E68F42C
:1030D0000EC0843F51F40BC0883E48F0813F29F474
:1030E00006C093FB882780F9089580E0089581E069
:1030F00008950E94DE1D0E9455180895CF93DF9316
:1031000000D000D01F92CDB7DEB70F900F900F9078
:103110000F900F90DF91CF910895CF93DF9300D060
:1031200000D000D0CDB7DEB726960FB6F894DEBF3C
:103130000FBECDBFDF91CF9108951F93CF93DF9343
:10314000C091360216E080913702C81799F0D0E09E
:103150001C9FF0011D9FF00D1124E85CFD4F408184
:10316000518162817381848195810E948D1821969D
:10317000C770E9CFDF91CF911F9108954091680208
:103180005091690260916A0270916B0280916C02A9
:1031900090916D020C948D180F931F93CF93DF9332
:1031A00080916D0282958F7009F05DC080916A02F6
:1031B000882309F458C0809136021091370260913B
:1031C000680270916902C0916B02D0916C0291E02B
:1031D0006F3F09F090E0292F06E0811709F443C002
:1031E000209721F07F3F21F030E003C031E001C0A3
:1031F000322F90E030FD34C0089FF001099FF00DA0
:103200001124DF01A85CBD4F11963C911197371333
:1032100027C03C91361324C012963C91129731116D
:103220001FC013964D915C9114974C1B5D0B483C4D
:103230005105B0F480916D028F70806180936D02B2
:10324000E35CFD4F80818F708061808388E692E02F
:103250000E940718DF91CF911F910F910C949D1838
:1032600001968770BACFDF91CF911F910F9108958A
:103270009F92AF92BF92CF92DF92EF92FF920F9305
:103280001F93CF93DF93CDB7DEB761970FB6F89456
:10329000DEBF0FBECDBF8C0185E0F801DE011D96BB
:1032A00001900D928A95E1F7F80140815181E28009
:1032B000909168026091690220916B0230916C02DA
:1032C0002115310531F06F3F31F481E09F3F19F452
:1032D00003C081E001C080E0F82FF1709F2E80FDD7
:1032E00046C1F801A380B48088E6C82E82E0D82EBB
:1032F000F0906A02F501E21BF30BFF2009F4DFC036
:1033000080916D02E83CF10508F09BC0282F207FDA
:1033100009F052C0561313C0491311C0FE2CE1101E
:103320000EC08F70806180936D020E94BE18C6012E
:103330000E94071880916D02F801858358C1AB285F
:1033400031F05F3F31F481E04F3F19F403C081E079
:1033500001C080E080FD03C081E08E2502C080E0D6
:1033600090E0F82FF170FF2E80FF1CC08091360294
:103370002091370236E0821709F417C190E0389F98
:10338000F001399FF00D1124E85CFD4F6181561367
:1033900006C06081461303C06281E61203C0019635
:1033A0008770E9CFFE2CEE2009F421C180916D02D7
:1033B000816080936D025AC0561306C0491304C041
:1033C000E11002C0F8019FC04D875E878D859E8504
:1033D0000E947918882379F1EE2069F120916D021D
:1033E000822F82958F7090E0029774F0809168022E
:1033F0009091690298878F831986BB86AA862C874D
:10340000CE0107960E94071886E0F801A8E6B2E010
:1034100001900D928A95E1F70E94CC180E94BE1887
:103420000DC0561729F14D875E878D859E850E94B8
:10343000791881112CC0C8010E940718FF24F39449
:10344000D6C0282F207F69F77A2DB98AA88A6E2DD9
:1034500089890E947E1888E692E00E94071886E01B
:10346000F60111928A95E9F70E94BE18F12CBFC0AF
:103470004913D9CFE110D7CFF8018583C8010E9445
:10348000071886E0F60111928A95E9F7B0C0EE20A0
:1034900091F220916D02822F82958F7090E00297B9
:1034A0000CF4B2CF80916802909169029A8389836B
:1034B0001B82BD82AC822E83CE010196A3CFE83C55
:1034C000F10508F047C0FE2CEE2009F4B4CF5613E6
:1034D00030C049132EC020916D0220FD21C0822FE3
:1034E00082958F70482F50E041155105C9F0F801C1
:1034F00025834F30510541F08F5F982F9295907F33
:10350000822F8F70892B8583C8010E94071886E05F
:10351000F801A8E6B2E001900D928A95E1F742C069
:1035200086E0F801A8E6B2E001900D928A95E1F7F5
:103530005EC04D875E878D859E850E9479188111BA
:1035400063CF80916D02816080936D02C8010E94FB
:1035500007184DC07A2DB98AA88A6E2D89890E94D4
:103560007E1886E0F60111928A95E9F71BC0EE20DD
:1035700009F461CF4D875E878D859E850E947918FD
:10358000F82E882309F457CF86E0F801A8E6B2E0C8
:1035900001900D928A95E1F788E692E00E948C14E2
:1035A0000E94CC180E94BE1822C04D875E878D8570
:1035B0009E850E94DE1D292F22952F70223028F42F
:1035C0009F7039F0811105C00BC0243028F49F7022
:1035D00049F4805E883020F0C8010E9407189F2CB3
:1035E000F92C05C0F8019581907F99F7F9CF8F2DBF
:1035F00061960FB6F894DEBF0FBECDBFDF91CF91BD
:103600001F910F91FF90EF90DF90CF90BF90AF9000
:103610009F9008951F93CF93DF93CDB7DEB72C977C
:103620000FB6F894DEBF0FBECDBF4F8358876987B2
:103630007A878B879C87CE0107960E94381988234A
:10364000D1F09F8188852A853B85232B31F08F3FE0
:1036500031F481E09F3F19F403C081E001C080E0B4
:1036600080FD47C04F81588569857A858B859C850B
:103670000E948D183EC086E0FE013796DE0111964D
:1036800001900D928A95E1F7FF81E8856A857B8537
:103690006115710531F0EF3F31F481E0FF3F19F41E
:1036A00003C081E001C080E080FD23C0209137028B
:1036B00030E0C9010196877099274091360250E0A9
:1036C00084179507F1F1F983EA837D836C8396E093
:1036D000929FD001939FB00D1124A85CBD4FFE01B5
:1036E000319601900D929A95E1F7809337020E94EE
:1036F0009D1816E08091360290913702891771F17A
:10370000189FC0011124885C9D4F0E94381988239E
:1037100029F1E09136021E9FF0011124E85CFD4F73
:103720004081518162817381848195810E948D18CD
:103730008091360290E00196877099278093360237
:10374000D9CF0E9451181092370210923602E8E643
:10375000F2E086E0DF011D928A95E9F72C960FB61C
:10376000F894DEBF0FBECDBFDF91CF911F910895BA
:10377000EF92FF920F931F93CF93DF938C01892BCE
:1037800009F46CC0F12CEE24E394E8012196F801D1
:103790008491843740F4843008F051C0813081F046
:1037A000823019F15BC0853709F444C0A8F19CE769
:1037B000980F903708F052C08F770E943C1541C097
:1037C0000E5F1F4FFE01849190E2980F983050F4E5
:1037D0008770FE2D01C0FF0F8A95EAF78F2F0E9498
:1037E000611E14C00E9492142DC00E5F1F4FFE0177
:1037F000849190E2980F983060F48770FE2D01C09C
:10380000FF0F8A95EAF78F2F0E94671E0E94901E75
:1038100019C00E943C1516C00E5F1F4FFE01C491D7
:10382000CC2381F08FE99FE00197F1F700C0000001
:10383000C150F6CF0E5F1F4FFE01F49003C00E94EF
:1038400092148E018F2D882309F49FCFEFE9FFE0BA
:103850003197F1F700C000008150F5CFDF91CF9193
:103860001F910F91FF90EF900895089508950C9483
:10387000361C0C94371C0E94391C60937C02709398
:103880007D0280937E0290937F020C9437180C94F3
:103890003B1C0F931F9300917C0210917D0220919D
:1038A0007E0230917F02602B712B822B932B1F9114
:1038B0000F910C943B1C0F931F9300917C0210916D
:1038C0007D0220917E0230917F026023712382234A
:1038D00093231F910F910C943B1C0F931F93009106
:1038E0007C0210917D0220917E0230917F02602740
:1038F0007127822793271F910F910C943B1C0C94E6
:10390000361C0E947F1C609378027093790280932A
:103910007A0290937B020C94371860E070E0CB0140
:103920000C94811C0F931F9341E050E060E070E025
:103930008A019B0104C0000F111F221F331F8A95AB
:10394000D2F7C901B8011F910F910C94811C0F93FC
:103950001F9341E050E060E070E004C0440F551F49
:10396000661F771F8A95D2F780917802909179022D
:10397000A0917A02B0917B028A019B01082B192B3E
:103980002A2B3B2BC901B8011F910F910C94811C6C
:103990000F931F9341E050E060E070E004C0440FDB
:1039A000551F661F771F8A95D2F7409550956095F1
:1039B00070958091780290917902A0917A02B091ED
:1039C0007B028A019B01082319232A233B23C90177
:1039D000B8011F910F910C94811C0F931F9341E02C
:1039E00050E060E070E004C0440F551F661F771F71
:1039F0008A95D2F78091780290917902A0917A020B
:103A0000B0917B028A019B01082719272A273B27AF
:103A1000C901B8011F910F910C94811C0F931F9342
:103A2000009178021091790220917A0230917B0204
:103A3000602B712B822B932B1F910F910C94811C67
:103A40000F931F93009178021091790220917A02CE
:103A500030917B0260237123822393231F910F9166
:103A60000C94811C0F931F9300917802109179029E
:103A700020917A0230917B02602771278227932759
:103A80001F910F910C94811C08952AE0929F800D44
:103A90001124E82FE695E695E695877051E001C080
:103AA000550F8A95EAF785E0E89FF0011124E25965
:103AB000FD4F20E030E070E04081CB01022E02C0DB
:103AC000969587950A94E2F78170819584278523DE
:103AD000842781932F5F3F4F2530310569F7089583
:103AE0002AE0929F800D1124682F66956695669551
:103AF000982F977085E0689FB001112440E050E056
:103B000080E0FB01E40FF51FE259FD4F208130E01A
:103B1000092E02C0369527950A94E2F721703327C3
:103B2000042E01C0220F0A94EAF7822B4F5F5F4FE9
:103B30004530510531F70895BF92CF92DF92EF9251
:103B4000FF920F931F93CF93DF938C01C090780265
:103B5000D0907902E0907A02F0907B0280917C0212
:103B600090917D02A0917E02B0917F02C82AD92A4D
:103B7000EA2AFB2ACFE1D0E0D701C6010C2E04C00F
:103B8000B695A795979587950A94D2F780FD04C0BE
:103B9000219790F7B12C07C0BC2EB8018C2F0E9442
:103BA0001B030197A9F38B2DDF91CF911F910F91EB
:103BB000FF90EF90DF90CF90BF900895CF93DF9369
:103BC000EC010E949C1DBE010E941B03DF91CF915E
:103BD00008951F93CF93DF93EB01909135029923C2
:103BE00021F0CB010E94DE1D13C0882349F0CB01D8
:103BF0000E949C1D182F682FCE010E94451D04C0F5
:103C0000CB010E94701D182FBE01812F0E941B0343
:103C1000DF91CF911F9108958091800285958595C0
:103C20008595089580918002877008959091800213
:103C3000977081E009F480E0089590919A0292FBD8
:103C4000222720F9281751F080FB92F990939A02CD
:103C50008091990290919A020C94231F089580916B
:103C60009A0282FB882780F991E089270C941D1E17
:103C700081E00C941D1E80E00C941D1E80918C022E
:103C8000089590918C02892B80938C0208958095E1
:103C900090918C02892380938C02089510928C025B
:103CA000089590918B02892B80938B0208958095C3
:103CB00090918B02892380938B02089510928B023E
:103CC000089590918A02892B80938A0208958095A5
:103CD00090918A02892380938A02089510928A0221
:103CE000089580918102089508950C94741E0C9497
:103CF000751E90919A0292FD08C0909181029817CA
:103D000021F0809381020C94771E089580918102A6
:103D1000882329F01092810280E00C94771E089588
:103D2000E0911F01F091200180918C028083E0914D
:103D30001F01F0912001908180918B02892B80835B
:103D4000E0911F01F0912001908180918A02892BDE
:103D5000808380918102882381F0E0911F01F0919E
:103D600020019081892B808380911F0190912001F7
:103D70000E94AE1F81110E94861E80911F019091AA
:103D800020010C9437130C94741E90919A0292FDAA
:103D900010C098E0899F90011124262B2093800267
:103DA0000E94A71C809180028595859585950C942D
:103DB000C31E0C94A71C1092800280E00C94C31EBA
:103DC000209180028095822380938002982F9770A3
:103DD00041F430E0482F082E000C550B241735070E
:103DE00021F490919A0292FF07C08595859585955B
:103DF0000E94C81C0C94DB1E089580E0089580E0AA
:103E000090E00E94FB2B21E08A3E9E4F09F020E0CB
:103E1000822F089582E090E00C94ED2B83E090E0F7
:103E20000C94ED2BCF9384E090E00E94ED2BC82FF3
:103E300082E290E00E94ED2B2C2F30E0A901582B5C
:103E4000CA01CF910895CF93C92F682F84E090E0E5
:103E50000E94012C6C2F82E290E0CF910C94012CF7
:103E6000AB01BC018FE090E00C94132CAB01BC01C2
:103E700083E190E00C94132C60E070E0CB010C9493
:103E8000361F60E070E0CB010E94301F0C943C1F95
:103E90006AEE7EEF80E090E00E941F2C60E082E0FE
:103EA00090E00E94012C60E083E090E00E94012CF1
:103EB00010927C0210927D0210927E0210927F027C
:103EC00060E084E090E00E94012C60E082E290E0FB
:103ED0000E94012C60E085E090E00E94012C60E0EF
:103EE00086E090E00E94012C6FEF87E090E00E9456
:103EF000012C40E050E0BA0188E090E00E94132CD1
:103F000060E08DE090E00E94012C40E050E0BA01BA
:103F100088E190E00E94132C60E087E190E00E942D
:103F2000012C40E050E0BA018CE190E00E94132C9B
:103F300060E070E080E290E00E941F2C40E050E0E2
:103F4000BA0188E190E00E94132C0C94411F0C945C
:103F5000481F682F8EE090E00C94012CFC013296F3
:103F600097E080E0915029F021912223D9F38F5FCF
:103F7000F9CF0895662349F0FC0132960896219105
:103F8000621729F0E817F907D1F780E0089581E07A
:103F900008959C01FC0132969FEF80E04191461705
:103FA00089F09F3F19F4411101C0982F8F5F86302F
:103FB000A9F79F3F39F0F901E90FF11D97FDFA9537
:103FC0006283089508959C012A5F3F4FFC0142815E
:103FD000461301C01282019682179307B9F708951C
:103FE0000C94C91F0C94E31F029626E0FC01119269
:103FF0002A95E9F7089508950C94FB1F0C94FB1F74
:104000000E94FE1F0E947C050E94FC1F80E00E940F
:104010002F0521E0892B09F420E0822F08950C94CC
:10402000FB1F0C940F208091D002843059F10E9424
:10403000112080E00E94F3020E94780E10928E02FE
:1040400020E488E190E00FB6F894A8958093600092
:104050000FBE2093600083B7817F846083BF83B7E6
:10406000816083BF7894889583B78E7F83BF0FB6B6
:10407000F894A89580916000886180936000109208
:1040800060000FBE08950C94FB1F0E9451180E94FF
:104090002B130E94F3020E94440F0C9443201F92A2
:1040A0000F920FB60F9211248F939F93AF93BF93EC
:1040B00080918E02811113C08091C8029091C90233
:1040C000A091CA02B091CB024196A11DB11D80936F
:1040D000C8029093C902A093CA02B093CB02BF91C9
:1040E000AF919F918F910F900FBE0F901F901895D9
:1040F00082E084BD93E095BD9AEF97BD80936E00FA
:1041000008952FB7F8948091C8029091C902A091A8
:10411000CA02B091CB022FBF08952FB7F8946091D7
:10412000C8027091C9028091CA029091CB022FBF40
:1041300008959C014FB7F8948091C8029091C902EC
:10414000A091CA02B091CB024FBF821B930B08957E
:1041500078941F920F920FB60F9211248F939F9312
:10416000AF93BF938091C8029091C902A091CA02F7
:10417000B091CB020196A11DB11D8093C80290930E
:10418000C902A093CA02B093CB02BF91AF919F9195
:104190008F910F900FBE0F901F90189587E797E7AC
:1041A00090930108809300089AE088E10FB6F89494
:1041B000A895809360000FBE90936000FFCF90930E
:1041C000C5018093C4010895809197020895CF930B
:1041D000DF9300D01F92CDB7DEB79091D00294301C
:1041E00019F589837B836A8382E08093E9008FEFEE
:1041F0009091E800815095FD06C095ED9A95F1F7F4
:1042000000008111F5CF8091E80085FF0DC040E0EE
:1042100050E063E070E0CE0101960E94022380919D
:10422000E8008E778093E8000F900F900F90DF9159
:10423000CF910895BC0184E00C94E720BC0183E099
:104240000C94E72022E02093E9002FEF3091E80062
:10425000215035FD06C035ED3A95F1F700002111EA
:10426000F5CF2091E80025FF0BC040E050E066E06C
:1042700070E00E9402238091E8008E778093E8002E
:104280000895CF93DF9321E02093E9002FEF309141
:10429000E800215035FD06C035ED3A95F1F70000F4
:1042A0002111F5CF2091E80025FF14C0EC0140E07A
:1042B00050E068E070E00E9402238091E8008E7771
:1042C0008093E80088E0FE01AFE8B2E001900D9233
:1042D0008A95E1F7DF91CF9108958091CF02811106
:1042E00009C00E9493240E94F0248091E20084601F
:1042F0008093E20008951092CF02089508950895E2
:10430000089542E061EC81E00E940C2442E261ECFD
:1043100082E00C940C248091D202833009F460C0B6
:1043200030F4813071F0823009F499C008958A30F8
:1043300009F485C08B3009F46BC0893009F0A7C03F
:1043400020C08091D102813A09F0A1C08091E8009B
:10435000877F8093E8008091D5029091D602892BC7
:1043600021F468E08FE892E003C060E080E090E034
:1043700070E00E944D238091E8008B778093E800E5
:1043800008958091D102813209F081C08091D502D7
:104390009091D602029708F07AC08091E800877F5A
:1043A0008093E8008091E80082FD05C08091D002F2
:1043B0008111F8CF6CC02091F3008091F20090E061
:1043C000922B029729F48091F1008B7F813021F4A8
:1043D0008091F100809397028091E8008B7753C021
:1043E0008091D102813A09F052C08091D50290911A
:1043F000D602892B09F04BC08091E800877F80931B
:10440000E8008091E80080FFFCCF80912B0136C04E
:104410008091D1028132D9F58091D5029091D60256
:10442000892BA9F58091E800877F8093E8000E949E
:1044300041248091D30280932B010C9451188091D8
:10444000D102813221F58091E800877F8093E800D6
:104450000E9441248091D402809398020895809113
:10446000D102813AA1F48091E800877F8093E8002F
:104470008091E80080FFFCCF809198028093F1004A
:104480008091E8008E778093E8000C944124089591
:1044900084B7877F84BF0FB6F894A8958091600099
:1044A000886180936000109260000FBE90E080E809
:1044B0000FB6F89480936100909361000FBE0E9444
:1044C000A7130E9493240E94F0248091E20084604C
:1044D0008093E20078940E9485270E94B51381E2C0
:1044E00091E00E9426138091D0028530A9F480913A
:1044F000D002853079F40E9413208091CE02882367
:10450000B1F30E940020882391F30E94EC220E94C4
:104510005118EDCF0E9445200E94BD130E94B11397
:10452000E2CF0C949322292F332723303105C9F091
:1045300060F42130310581F02230310509F044C0AA
:104540008BE390E02EEB32E043C021323105E1F005
:104550002232310549F138C082E190E029EF32E0A2
:1045600037C099278130910549F028F0029761F50D
:10457000E4E8F2E005C0EAEBF2E002C0E4EAF2E0CF
:10458000849190E09F0124C06115710541F0613074
:104590007105D1F489E090E029EE32E019C089E09C
:1045A00090E020ED32E014C06115710541F06130FA
:1045B000710551F48BE790E02BE033E009C080E413
:1045C00090E026E833E004C080E090E020E030E0B6
:1045D000FA0131832083089580E189BD82E189BD9C
:1045E00009B400FEFDCF8091D8008F7D8093D80064
:1045F0008091E00082608093E0008091E00081FD86
:10460000FCCF0895CF92DF92EF92FF920F931F930A
:10461000CF93DF93EC018B017A010E94602481111A
:1046200033C0E114F10439F0F70180819181081B56
:10463000190BC80FD91FC12CD12C0115110519F167
:104640008091E80085FD16C08091E8008E77809308
:10465000E800E114F10449F0F70180819181C80E6E
:10466000D91ED182C08285E00FC00E9460248823B9
:1046700021F30AC089918093F10001501109FFEFE5
:10468000CF1ADF0ADACF80E0DF91CF911F910F912F
:10469000FF90EF90DF90CF9008952091D702309156
:1046A000D8022617370748F06115710539F42091B3
:1046B000E8002E772093E80001C0B901FC0120E05A
:1046C0006115710579F18091D0028823F1F185306F
:1046D000F1F18091E80083FD3CC08091E80082FD0B
:1046E0002EC08091E80080FFEBCF2091F3008091F5
:1046F000F20090E0922B6115710551F08830910520
:1047000038F421912093F100615071090196F3CFA3
:1047100021E0089709F020E08091E8008E778093EF
:10472000E800CECF2111CFCF0AC08091D0028823DC
:1047300061F0853061F08091E80083FD0AC08091CE
:10474000E80082FFF2CF80E0089582E0089583E0E0
:10475000089581E008952091D7023091D80226175C
:10476000370748F06115710539F42091E8002E777C
:104770002093E80001C0B901FC0120E0611571053A
:1047800091F18091D002882309F440C0853009F46A
:104790003FC08091E80083FD3DC08091E80082FD2C
:1047A0002FC08091E80080FFE9CF2091F300809135
:1047B000F20090E0922B6115710559F08830910557
:1047C00040F424912093F1003196615071090196D3
:1047D000F2CF21E0089709F020E08091E8008E7781
:1047E0008093E800CBCF2111CCCF0AC08091D002BA
:1047F000882361F0853061F08091E80083FD0AC074
:104800008091E80082FFF2CF80E0089582E0089571
:1048100083E0089581E00895982F973068F590938C
:10482000E900981739F07091EC002091ED0050915B
:10483000F00003C0242F762F50E021FD02C09F5FBF
:10484000ECCF3091EB003E7F3093EB003091ED00E8
:104850003D7F3093ED003091EB0031603093EB0001
:104860007093EC002093ED005093F0002091EE0047
:1048700027FDE5CF80E008958F708093E90081E007
:1048800008958091D10287FF11C08091E80082FDD8
:1048900005C08091D0028111F8CF11C08091E8004D
:1048A0008B770BC08091D002882349F08091E8007B
:1048B00080FFF8CF8091E8008E778093E80008951C
:1048C0002091E4003091E50095E64091EC00842FC2
:1048D000817040FF23C08091E80080FD1DC0809161
:1048E000D002882399F0853099F08091EB0085FD06
:1048F00011C04091E4005091E5002417350729F3D9
:10490000915011F09A01E1CF84E0089582E008957A
:1049100083E0089581E0089580E008954091E800E3
:1049200042FFDDCF08950E9401250E940925E0EE97
:10493000F0E0808181608083E8EDF0E080818F7716
:10494000808319BCA7EDB0E08C918E7F8C93808121
:104950008F7E80831092CF0208950F931F93CF9381
:10496000DF930E9401250E940925C8EDD0E08881CF
:104970008F77888388818068888388818F7D88830A
:1049800019BC1092D0021092CC021092CE0210925A
:10499000CD0200EE10E0F80180818B7F808388815A
:1049A0008160888342E060E080E00E940C24E1EEB8
:1049B000F0E080818E7F8083E2EEF0E08081816094
:1049C0008083808188608083F80180818E7F8083EE
:1049D000888180618883DF91CF911F910F91089525
:1049E000E8EDF0E080818F7E8083E7EDF0E080816C
:1049F0008160808384E082BF81E08093CF020C9449
:104A0000AD24E8EDF0E080818E7F80831092E2009B
:104A100008951092DA001092E10008951F920F920B
:104A20000FB60F9211242F933F934F935F936F9381
:104A30007F938F939F93AF93BF93EF93FF93809157
:104A4000E10082FF0BC08091E20082FF07C08091ED
:104A5000E1008B7F8093E1000E9484278091DA003F
:104A600080FF1FC08091D80080FF1BC08091DA00BA
:104A70008E7F8093DA008091D90080FF0DC080E1A5
:104A800089BD82E189BD09B400FEFDCF81E080933C
:104A9000D0020E946D2105C019BC1092D0020E9464
:104AA0007B218091E10080FF19C08091E20080FFAE
:104AB00015C08091E2008E7F8093E2008091E20039
:104AC00080618093E2008091D80080628093D8005A
:104AD00019BC85E08093D0020E947F218091E10083
:104AE00084FF30C08091E20084FF2CC080E189BD4A
:104AF00082E189BD09B400FEFDCF8091D8008F7D91
:104B00008093D8008091E1008F7E8093E1008091B6
:104B1000E2008F7E8093E2008091E20081608093CA
:104B2000E2008091CC02882311F084E007C08091DC
:104B3000E30087FD02C081E001C083E08093D002E2
:104B40000E9480218091E10083FF29C08091E200D2
:104B500083FF25C08091E100877F8093E10082E0A0
:104B60008093D0021092CC028091E1008E7F8093DE
:104B7000E1008091E2008E7F8093E2008091E2006C
:104B800080618093E20042E060E080E00E940C24BB
:104B90008091F00088608093F0000E947E21FF9158
:104BA000EF91BF91AF919F918F917F916F915F91A5
:104BB0004F913F912F910F900FBE0F901F9018951E
:104BC0001F920F920FB60F9211242F933F934F9382
:104BD0005F936F937F938F939F93AF93BF93CF9385
:104BE000DF93EF93FF93C091E900CF708091EC00C9
:104BF000D82FD17080FDD0E81092E9008091F000AC
:104C0000877F8093F00078940E9424261092E90018
:104C10008091F00088608093F000CD2BCF70C0931E
:104C2000E900FF91EF91DF91CF91BF91AF919F91FB
:104C30008F917F916F915F914F913F912F910F9045
:104C40000FBE0F901F9018951F93CF93DF93CDB792
:104C5000DEB7AA970FB6F894DEBF0FBECDBFE1ED69
:104C6000F2E08091F100819322E0E93DF207C9F77B
:104C70000E948B218091E80083FF2EC18091D10298
:104C80009091D202492F50E04A30510508F024C1DA
:104C9000FA01EC58FF4F0C944D2B803821F08238EC
:104CA00009F01AC108C08091CD029091CE029923DB
:104CB00089F082600FC08091D5028F70873008F034
:104CC0000BC18093E9008091EB0085FB882780F978
:104CD0001092E9009091E800977F9093E80080930C
:104CE000F1001092F100D1C0282F2D7F09F0F4C0FF
:104CF000882319F0823061F0EFC08091D3028130B7
:104D000009F0EAC0933009F080E08093CE022EC013
:104D10008091D30281112AC08091D5028F702FEF2C
:104D2000280F263008F0D8C08093E9002091EB00CE
:104D300020FF1CC0933021F48091EB00806214C0EE
:104D40009091EB0090619093EB0021E030E0A9019D
:104D500002C0440F551F8A95E2F74093EA00109273
:104D6000EA008091EB0088608093EB001092E900EC
:104D70008091E800877F8093E8000E944124ACC0C6
:104D80008111AAC01091D3021F778091E30080782F
:104D9000812B8093E3008091E800877F8093E80077
:104DA0000E9441248091E80080FFFCCF8091E300C5
:104DB00080688093E300111102C082E001C083E0AB
:104DC0008093D00289C08058823008F085C08091DD
:104DD000D3029091D4028C3D53E0950779F583E09E
:104DE0008A838AE289834FB7F894DE01139620E024
:104DF0003EE051E2E32FF0E050935700E49120FFB2
:104E000003C0E295EF703F5FEF708E2F90E0EA30C5
:104E100010F0C79601C0C0968D939D932F5F2431EB
:104E200049F74FBF8091E800877F8093E8006AE2EE
:104E300070E0CE0101960E944D2316C06091D5020C
:104E40007091D602AE014F5F5F4F0E949122BC016C
:104E5000892B09F441C09091E800977F9093E80076
:104E600089819A810E94AB238091E8008B7780939F
:104E7000E80032C0803881F58091E800877F809318
:104E8000E8008091CC028093F1008091E8008E7759
:104E900072CF811121C08091D3029091D4029927C1
:104EA0000297D4F48091E800877F8093E800809196
:104EB000D3028093CC020E9441248091CC028111C4
:104EC00006C08091E30087FD02C081E001C084E05C
:104ED0008093D0020E9481218091E80083FF0AC064
:104EE0008091E800877F8093E8008091EB008062EA
:104EF0008093EB00AA960FB6F894DEBF0FBECDBF2D
:104F0000DF91CF911F9108950895CF938091D002A2
:104F10008823A1F0C091E900CF709091EC00892F17
:104F2000817090FD80E8C82B1092E9008091E80024
:104F300083FD0E942426CF70C093E900CF9108958D
:104F40005058BB27AA270E94B8270C9463290E94B7
:104F5000552938F00E945C2920F039F49F3F19F45C
:104F600026F40C942B290EF4E095E7FB0C942529EC
:104F7000E92F0E94742958F3BA1762077307840750
:104F8000950720F079F4A6F50C9496290EF4E09597
:104F90000B2EBA2FA02D0B01B90190010C01CA01F3
:104FA000A0011124FF27591B99F0593F50F4503E9E
:104FB00068F11A16F040A22F232F342F4427585F90
:104FC000F3CF469537952795A795F0405395C9F7A8
:104FD0007EF41F16BA0B620B730B840BBAF0915060
:104FE000A1F0FF0FBB1F661F771F881FC2F70EC0FF
:104FF000BA0F621F731F841F48F4879577956795D2
:10500000B795F7959E3F08F0B0CF9395880F08F0BD
:105010009927EE0F9795879508950E9421280C9463
:1050200063290E945C2958F00E94552940F029F418
:105030005F3F29F00C94252951110C9497290C9469
:105040002B290E94742968F39923B1F3552391F316
:10505000951B550BBB27AA2762177307840738F0E7
:105060009F5F5F4F220F331F441FAA1FA9F335D044
:105070000E2E3AF0E0E832D091505040E695001CF8
:10508000CAF72BD0FE2F29D0660F771F881FBB1FB2
:10509000261737074807AB07B0E809F0BB0B802D90
:1050A000BF01FF2793585F4F3AF09E3F510578F0BC
:1050B0000C9425290C9497295F3FE4F3983ED4F390
:1050C000869577956795B795F7959F5FC9F7880F90
:1050D000911D9695879597F90895E1E0660F771FE2
:1050E000881FBB1F621773078407BA0720F0621B73
:1050F000730B840BBA0BEE1F88F7E095089529F423
:1051000016F00C9425290C9496290C942B290E94B6
:105110007C29A8F39638A0F707F80F92E8942BE3C0
:105120003AEA48EB5FE70E94292A0F920F920F920A
:105130004DB75EB70F920E94DF29ECEFF0E00E94BE
:105140002E294F915F91EF91FF91E595EE1FFF1F83
:1051500049F0FE57E0684427EE0F441FFA95E1F747
:105160004195550B0E94A9290F9007FE0C949D298B
:1051700008950E947C2988F09F5798F0B92F9927AD
:10518000B751B0F0E1F0660F771F881F991F1AF032
:10519000BA95C9F714C0B13091F00E949629B1E0D8
:1051A00008950C949629672F782F8827B85F39F0D7
:1051B000B93FCCF3869577956795B395D9F73EF4CB
:1051C00090958095709561957F4F8F4F9F4F089573
:1051D000E89409C097FB3EF4909580957095619591
:1051E0007F4F8F4F9F4F9923A9F0F92F96E9BB2747
:1051F0009395F695879577956795B795F111F8CFC3
:10520000FAF4BB0F11F460FF1BC06F5F7F4F8F4F2D
:105210009F4F16C0882311F096E911C0772321F023
:105220009EE8872F762F05C0662371F096E8862FBB
:1052300070E060E02AF09A95660F771F881FDAF712
:10524000880F9695879597F9089597F99F6780E855
:1052500070E060E008959FEF80EC0895DF93CF93B6
:105260001F930F93FF92EF92DF927B018C01689462
:1052700006C0DA2EEF010E94262AFE01E894A591CD
:105280002591359145915591A6F3EF010E94B827DC
:10529000FE019701A801DA9469F7DF90EF90FF9083
:1052A0000F911F91CF91DF91089500240A94161653
:1052B000170618060906089500240A941216130604
:1052C000140605060895092E0394000C11F4882392
:1052D00052F0BB0F40F4BF2B11F460FF04C06F5FAE
:1052E0007F4F8F4F9F4F089557FD9058440F551F84
:1052F00059F05F3F71F04795880F97FB991F61F058
:105300009F3F79F087950895121613061406551FCE
:10531000F2CF4695F1DF08C0161617061806991F3A
:10532000F1CF86957105610508940895E894BB272F
:1053300066277727CB0197F908959B01AC0160E0C0
:1053400070E080E89FE30C940D280C9425290C94C0
:10535000882A0E947C29D8F39923C9F3940F511D00
:10536000A3F39150504094F059F0882332F0660F27
:10537000771F881F91505040C1F79E3F51052CF771
:10538000880F911D9695879597F908955F3FACF02A
:10539000983E9CF0BB27869577956795B79508F45E
:1053A000B1609395C1F7BB0F58F711F460FFE8CFD8
:1053B0006F5F7F4F8F4F9F4FE3CF0C949729FA0178
:1053C000DC01AA0FBB1F9B01AC01BF5728F42227A9
:1053D00033274427507820C0B75190F4AB2F0024D6
:1053E000469537952795011CA395D2F3002071F0BF
:1053F000220F331F441FB395DAF30ED00C94A0276D
:1054000061307105A0E88A07B94630F49B01AC0110
:105410006627772788279078309621F0208331837C
:105420004283538308950E94262A0C9463290E9484
:10543000552938F00E945C2920F0952311F00C9436
:1054400025290C942B2911240C9497290E94742946
:1054500070F3959FC1F3950F50E0551F629FF001C7
:10546000729FBB27F00DB11D639FAA27F00DB11DE0
:10547000AA1F649F6627B00DA11D661F829F222769
:10548000B00DA11D621F739FB00DA11D621F839FF0
:10549000A00D611D221F749F3327A00D611D231FC6
:1054A000849F600D211D822F762F6A2F11249F5714
:1054B00050409AF0F1F088234AF0EE0FFF1FBB1F17
:1054C000661F771F881F91505040A9F79E3F5105D6
:1054D00080F00C9425290C9497295F3FE4F3983EC3
:1054E000D4F3869577956795B795F795E7959F5F80
:1054F000C1F7FE2B880F911D9695879597F9089512
:105500009F930E94982A0F9007FCEE5F0C94C12A8B
:105510009F3F31F0915020F4879577956795B79527
:10552000880F911D9695879597F908950C942B29CE
:105530000E947C29D8F3E894E0E0BB279F57F0F065
:105540002AED3FE049EC06C0EE0FBB0F661F771F48
:10555000881F28F0B23A62077307840728F0B25A0E
:10556000620B730B840BE3959A9572F7803830F4D5
:105570009A95BB0F661F771F881FD2F790480C942F
:105580008A2AEF93E0FF07C0A2EA2AED3FE049EC48
:105590005FEB0E94B8270E9463290F90039401FCDF
:1055A0009058E4E2F1E00C94D52A9F938F937F9377
:1055B0006F93FF93EF939B01AC010E94132AEF912D
:1055C000FF910E942E292F913F914F915F910C9452
:1055D000132A991B79E004C0991F961708F0961BAF
:1055E000881F7A95C9F78095089587FB082E0626AF
:1055F00087FD819567FD61950E94E92A0EF49195DA
:1056000007FC81950895AA1BBB1B51E107C0AA1F87
:10561000BB1FA617B70710F0A61BB70B881F991F53
:105620005A95A9F780959095BC01CD01089597FBF7
:10563000072E16F4009407D077FD09D00E94032BA3
:1056400007FC05D03EF4909581959F4F0895709585
:1056500061957F4F0895A1E21A2EAA1BBB1BFD0185
:105660000DC0AA1FBB1FEE1FFF1FA217B307E40741
:10567000F50720F0A21BB30BE40BF50B661F771F99
:10568000881F991F1A9469F7609570958095909579
:105690009B01AC01BD01CF010895EE0FFF1F0590E6
:1056A000F491E02D09940E945B2B332312F48A1BA2
:1056B0009B0B0C946C2BA29FB001B39FC001A39FC6
:1056C000700D811D1124911DB29F700D811D11243B
:1056D000911D08950E945B2BB7FF0895821B930BC9
:1056E00008950E945B2BA59F900DB49F900DA49FE1
:1056F000800D911D11240895B7FF0C94712B0E9409
:10570000712B821B930B08958F929F92AF92BF9241
:10571000CF92DF92EF92FF92CF93DF93EC016881FB
:1057200079818A819B81611571058105910521F43B
:1057300064E279ED8BE597E02DE133EF41E050E055
:105740000E94352C49015A019B01AC01A7EAB1E442
:105750000E94712B6B017C01ACEEB4EFA5019401AA
:105760000E947F2BDC01CB018C0D9D1DAE1DBF1D4A
:10577000B7FF03C00197A109B04888839983AA8322
:10578000BB839F77DF91CF91FF90EF90DF90CF9019
:10579000BF90AF909F908F9008950E94842B0895A2
:1057A00080E091E00E94842B0895A0E0B0E0809317
:1057B000000190930101A0930201B09303010895A9
:1057C000FC014150504030F001900616D1F731975E
:1057D000CF010895882799270895F999FECF92BDA2
:1057E00081BDF89A992780B50895A6E1B0E044E01C
:1057F00050E00C94272CA8E1B0E042E050E00C947B
:10580000272C262FF999FECF92BD81BDF89A0197DA
:1058100000B4021639F01FBA20BD0FB6F894FA9AF8
:10582000F99A0FBE08950396272F0E94022C0E941A
:10583000012C252F0E94022C242F0C94022C01965F
:10584000272F0E94022C0C94012CDC01CB01FC01BF
:10585000F999FECF06C0F2BDE1BDF89A319600B4C9
:105860000D9241505040B8F70895052E97FB1EF455
:1058700000940E944C2C57FD07D00E942B2B07FC54
:1058800003D04EF40C944C2C5095409530952195B6
:105890003F4F4F4F5F4F089590958095709561955C
:0C58A0007F4F8F4F9F4F0895F894FFCF6B
:1058AC00010000002808641E140A321E01010200C7
:1058BC000C000C0C01191A1B1C1D1E1F202122820E
:1058CC0002E420412122211E211A2101E200E900DB
:1058DC00EA00B500B600B700CD008301CC008A0108
:1058EC00920194012102230224022502260227029E
:1058FC002A02B300B4006F0070008182836697C6E1
:10590C003436323331F7F600010202020206060683
:10591C000909090909090F0F0F0F0F0F1515151894
:10592C001919191919191919191923242525252596
:10593C002525E200E900EA00B500B600B700CD006D
:10594C008301CC008A0192019401210223022402DA
:10595C002502260227022A02B300B4006F00700051
:04596C0081828300B1
:00000001FF
